{
  "_format": "hh-sol-artifact-1",
  "contractName": "LPFarm",
  "sourceName": "contracts/staking/LPFarm.sol",
  "abi": [
    {
      "anonymous": false,
      "inputs": [
        {
          "indexed": false,
          "internalType": "uint256",
          "name": "reward",
          "type": "uint256"
        }
      ],
      "name": "RewardAdded",
      "type": "event"
    },
    {
      "anonymous": false,
      "inputs": [
        {
          "indexed": true,
          "internalType": "address",
          "name": "user",
          "type": "address"
        },
        {
          "indexed": false,
          "internalType": "uint256",
          "name": "reward",
          "type": "uint256"
        }
      ],
      "name": "RewardPaid",
      "type": "event"
    },
    {
      "anonymous": false,
      "inputs": [
        {
          "indexed": true,
          "internalType": "address",
          "name": "user",
          "type": "address"
        },
        {
          "indexed": false,
          "internalType": "uint256",
          "name": "amount",
          "type": "uint256"
        }
      ],
      "name": "Staked",
      "type": "event"
    },
    {
      "anonymous": false,
      "inputs": [
        {
          "indexed": true,
          "internalType": "address",
          "name": "user",
          "type": "address"
        },
        {
          "indexed": false,
          "internalType": "uint256",
          "name": "amount",
          "type": "uint256"
        }
      ],
      "name": "Withdrawn",
      "type": "event"
    },
    {
      "inputs": [],
      "name": "DURATION",
      "outputs": [
        {
          "internalType": "uint256",
          "name": "",
          "type": "uint256"
        }
      ],
      "stateMutability": "view",
      "type": "function"
    },
    {
      "inputs": [
        {
          "internalType": "address",
          "name": "account",
          "type": "address"
        }
      ],
      "name": "balanceOf",
      "outputs": [
        {
          "internalType": "uint256",
          "name": "",
          "type": "uint256"
        }
      ],
      "stateMutability": "view",
      "type": "function"
    },
    {
      "inputs": [],
      "name": "controller",
      "outputs": [
        {
          "internalType": "contract FarmController",
          "name": "",
          "type": "address"
        }
      ],
      "stateMutability": "view",
      "type": "function"
    },
    {
      "inputs": [
        {
          "internalType": "address",
          "name": "account",
          "type": "address"
        }
      ],
      "name": "earned",
      "outputs": [
        {
          "internalType": "uint256",
          "name": "",
          "type": "uint256"
        }
      ],
      "stateMutability": "view",
      "type": "function"
    },
    {
      "inputs": [],
      "name": "exit",
      "outputs": [],
      "stateMutability": "nonpayable",
      "type": "function"
    },
    {
      "inputs": [],
      "name": "getReward",
      "outputs": [],
      "stateMutability": "nonpayable",
      "type": "function"
    },
    {
      "inputs": [
        {
          "internalType": "address",
          "name": "_stakeToken",
          "type": "address"
        },
        {
          "internalType": "address",
          "name": "_controller",
          "type": "address"
        }
      ],
      "name": "initialize",
      "outputs": [],
      "stateMutability": "nonpayable",
      "type": "function"
    },
    {
      "inputs": [],
      "name": "lastTimeRewardApplicable",
      "outputs": [
        {
          "internalType": "uint256",
          "name": "",
          "type": "uint256"
        }
      ],
      "stateMutability": "view",
      "type": "function"
    },
    {
      "inputs": [],
      "name": "lastUpdateTime",
      "outputs": [
        {
          "internalType": "uint256",
          "name": "",
          "type": "uint256"
        }
      ],
      "stateMutability": "view",
      "type": "function"
    },
    {
      "inputs": [
        {
          "internalType": "uint256",
          "name": "reward",
          "type": "uint256"
        }
      ],
      "name": "notifyRewardAmount",
      "outputs": [],
      "stateMutability": "nonpayable",
      "type": "function"
    },
    {
      "inputs": [],
      "name": "periodFinish",
      "outputs": [
        {
          "internalType": "uint256",
          "name": "",
          "type": "uint256"
        }
      ],
      "stateMutability": "view",
      "type": "function"
    },
    {
      "inputs": [],
      "name": "rewardPerToken",
      "outputs": [
        {
          "internalType": "uint256",
          "name": "",
          "type": "uint256"
        }
      ],
      "stateMutability": "view",
      "type": "function"
    },
    {
      "inputs": [],
      "name": "rewardPerTokenStored",
      "outputs": [
        {
          "internalType": "uint256",
          "name": "",
          "type": "uint256"
        }
      ],
      "stateMutability": "view",
      "type": "function"
    },
    {
      "inputs": [],
      "name": "rewardRate",
      "outputs": [
        {
          "internalType": "uint256",
          "name": "",
          "type": "uint256"
        }
      ],
      "stateMutability": "view",
      "type": "function"
    },
    {
      "inputs": [],
      "name": "rewardToken",
      "outputs": [
        {
          "internalType": "contract IERC20",
          "name": "",
          "type": "address"
        }
      ],
      "stateMutability": "view",
      "type": "function"
    },
    {
      "inputs": [
        {
          "internalType": "address",
          "name": "",
          "type": "address"
        }
      ],
      "name": "rewards",
      "outputs": [
        {
          "internalType": "uint256",
          "name": "",
          "type": "uint256"
        }
      ],
      "stateMutability": "view",
      "type": "function"
    },
    {
      "inputs": [
        {
          "internalType": "uint256",
          "name": "amount",
          "type": "uint256"
        }
      ],
      "name": "stake",
      "outputs": [],
      "stateMutability": "nonpayable",
      "type": "function"
    },
    {
      "inputs": [],
      "name": "stakeToken",
      "outputs": [
        {
          "internalType": "contract IERC20",
          "name": "",
          "type": "address"
        }
      ],
      "stateMutability": "view",
      "type": "function"
    },
    {
      "inputs": [],
      "name": "totalSupply",
      "outputs": [
        {
          "internalType": "uint256",
          "name": "",
          "type": "uint256"
        }
      ],
      "stateMutability": "view",
      "type": "function"
    },
    {
      "inputs": [
        {
          "internalType": "address",
          "name": "",
          "type": "address"
        }
      ],
      "name": "userRewardPerTokenPaid",
      "outputs": [
        {
          "internalType": "uint256",
          "name": "",
          "type": "uint256"
        }
      ],
      "stateMutability": "view",
      "type": "function"
    },
    {
      "inputs": [
        {
          "internalType": "uint256",
          "name": "amount",
          "type": "uint256"
        }
      ],
      "name": "withdraw",
      "outputs": [],
      "stateMutability": "nonpayable",
      "type": "function"
    }
  ],
  "bytecode": "0x608060405234801561001057600080fd5b5061100d806100206000396000f3fe608060405234801561001057600080fd5b50600436106101365760003560e01c80637b0a47ee116100b8578063cd3daf9d1161007c578063cd3daf9d146102c0578063df136d65146102c8578063e9fad8ee146102d0578063ebe2b12b146102d8578063f77c4791146102e0578063f7c618c1146102e857610136565b80637b0a47ee1461026557806380faa57d1461026d5780638b87634714610275578063a694fc3a1461029b578063c8f33c91146102b857610136565b80633c6b16ab116100ff5780633c6b16ab146101c85780633d18b912146101e5578063485cc955146101ed57806351ed6a301461021b57806370a082311461023f57610136565b80628cc2621461013b5780630700037d1461017357806318160ddd146101995780631be05289146101a15780632e1a7d4d146101a9575b600080fd5b6101616004803603602081101561015157600080fd5b50356001600160a01b03166102f0565b60408051918252519081900360200190f35b6101616004803603602081101561018957600080fd5b50356001600160a01b031661035e565b610161610370565b610161610377565b6101c6600480360360208110156101bf57600080fd5b503561037e565b005b6101c6600480360360208110156101de57600080fd5b5035610465565b6101c66105e5565b6101c66004803603604081101561020357600080fd5b506001600160a01b03813581169160200135166106b7565b6102236107ce565b604080516001600160a01b039092168252519081900360200190f35b6101616004803603602081101561025557600080fd5b50356001600160a01b03166107dd565b6101616107f8565b6101616107fe565b6101616004803603602081101561028b57600080fd5b50356001600160a01b0316610811565b6101c6600480360360208110156102b157600080fd5b5035610823565b610161610907565b61016161090d565b61016161095b565b6101c6610961565b61016161097c565b610223610982565b610223610991565b6001600160a01b0381166000908152600a60209081526040808320546009909252822054610358919061035290670de0b6b3a76400009061034c9061033d9061033761090d565b906109a0565b610346886107dd565b906109fd565b90610a5d565b90610ac4565b92915050565b600a6020526000908152604090205481565b6001545b90565b62093a8081565b3361038761090d565b6008556103926107fe565b6007556001600160a01b038116156103d9576103ad816102f0565b6001600160a01b0382166000908152600a60209081526040808320939093556008546009909152919020555b60008211610422576040805162461bcd60e51b8152602060048201526011602482015270043616e6e6f74207769746864726177203607c1b604482015290519081900360640190fd5b61042b82610b1e565b60408051838152905133917f7084f5476618d8e60b11ef0d7d3f06914655adb8793e28ff7f018d4c76d505d5919081900360200190a25050565b6003546001600160a01b031633146104c4576040805162461bcd60e51b815260206004820152601860248201527f43616c6c6572206973206e6f7420636f6e74726f6c6c65720000000000000000604482015290519081900360640190fd5b60006104ce61090d565b6008556104d96107fe565b6007556001600160a01b03811615610520576104f4816102f0565b6001600160a01b0382166000908152600a60209081526040808320939093556008546009909152919020555b600454610538906001600160a01b0316333085610b76565b60055442106105565761054e8262093a80610a5d565b600655610598565b60055460009061056690426109a0565b9050600061057f600654836109fd90919063ffffffff16565b905061059262093a8061034c8684610ac4565b60065550505b4260078190556105ab9062093a80610ac4565b6005556040805183815290517fde88a922e0d3b88b24e9623efeb464919c6bf9f66857a65e2bfcf2ce87a9433d9181900360200190a15050565b336105ee61090d565b6008556105f96107fe565b6007556001600160a01b0381161561064057610614816102f0565b6001600160a01b0382166000908152600a60209081526040808320939093556008546009909152919020555b600061064b336102f0565b905080156106b357336000818152600a602052604081205560045461067c916001600160a01b039091169083610bd6565b60408051828152905133917fe2403640ba68fed3a2f88b7557551d1993f84b99bb10ff833f0cf8db0c5e0486919081900360200190a25b5050565b6000546001600160a01b03161561070b576040805162461bcd60e51b8152602060048201526013602482015272185b1c9958591e481a5b9a5d1a585b1a5e9959606a1b604482015290519081900360640190fd5b600080546001600160a01b038085166001600160a01b03199283161790925560038054848416921691909117908190556040805163f7c618c160e01b81529051919092169163f7c618c1916004808301926020929190829003018186803b15801561077557600080fd5b505afa158015610789573d6000803e3d6000fd5b505050506040513d602081101561079f57600080fd5b5051600480546001600160a01b0319166001600160a01b03909216919091179055505060006005819055600655565b6000546001600160a01b031681565b6001600160a01b031660009081526002602052604090205490565b60065481565b600061080c42600554610c2d565b905090565b60096020526000908152604090205481565b3361082c61090d565b6008556108376107fe565b6007556001600160a01b0381161561087e57610852816102f0565b6001600160a01b0382166000908152600a60209081526040808320939093556008546009909152919020555b600082116108c4576040805162461bcd60e51b815260206004820152600e60248201526d043616e6e6f74207374616b6520360941b604482015290519081900360640190fd5b6108cd82610c43565b60408051838152905133917f9e71bc8eea02a63969f509818f2dafb9254532904319f9dbda79b67bd34a5f3d919081900360200190a25050565b60075481565b6000610917610370565b6109245750600854610374565b61080c610952610932610370565b61034c670de0b6b3a76400006103466006546103466007546103376107fe565b60085490610ac4565b60085481565b61097261096d336107dd565b61037e565b61097a6105e5565b565b60055481565b6003546001600160a01b031681565b6004546001600160a01b031681565b6000828211156109f7576040805162461bcd60e51b815260206004820152601e60248201527f536166654d6174683a207375627472616374696f6e206f766572666c6f770000604482015290519081900360640190fd5b50900390565b600082610a0c57506000610358565b82820282848281610a1957fe5b0414610a565760405162461bcd60e51b8152600401808060200182810382526021815260200180610f8d6021913960400191505060405180910390fd5b9392505050565b6000808211610ab3576040805162461bcd60e51b815260206004820152601a60248201527f536166654d6174683a206469766973696f6e206279207a65726f000000000000604482015290519081900360640190fd5b818381610abc57fe5b049392505050565b600082820183811015610a56576040805162461bcd60e51b815260206004820152601b60248201527f536166654d6174683a206164646974696f6e206f766572666c6f770000000000604482015290519081900360640190fd5b600154610b2b90826109a0565b60015533600090815260026020526040902054610b4890826109a0565b336000818152600260205260408120929092559054610b73916001600160a01b039091169083610bd6565b50565b604080516001600160a01b0380861660248301528416604482015260648082018490528251808303909101815260849091019091526020810180516001600160e01b03166323b872dd60e01b179052610bd0908590610c99565b50505050565b604080516001600160a01b038416602482015260448082018490528251808303909101815260649091019091526020810180516001600160e01b031663a9059cbb60e01b179052610c28908490610c99565b505050565b6000818310610c3c5781610a56565b5090919050565b600154610c509082610ac4565b60015533600090815260026020526040902054610c6d9082610ac4565b336000818152600260205260408120929092559054610b73916001600160a01b03909116903084610b76565b6000610cee826040518060400160405280602081526020017f5361666545524332303a206c6f772d6c6576656c2063616c6c206661696c6564815250856001600160a01b0316610d4a9092919063ffffffff16565b805190915015610c2857808060200190516020811015610d0d57600080fd5b5051610c285760405162461bcd60e51b815260040180806020018281038252602a815260200180610fae602a913960400191505060405180910390fd5b6060610d598484600085610d61565b949350505050565b606082471015610da25760405162461bcd60e51b8152600401808060200182810382526026815260200180610f676026913960400191505060405180910390fd5b610dab85610ebc565b610dfc576040805162461bcd60e51b815260206004820152601d60248201527f416464726573733a2063616c6c20746f206e6f6e2d636f6e7472616374000000604482015290519081900360640190fd5b600080866001600160a01b031685876040518082805190602001908083835b60208310610e3a5780518252601f199092019160209182019101610e1b565b6001836020036101000a03801982511681845116808217855250505050505090500191505060006040518083038185875af1925050503d8060008114610e9c576040519150601f19603f3d011682016040523d82523d6000602084013e610ea1565b606091505b5091509150610eb1828286610ec2565b979650505050505050565b3b151590565b60608315610ed1575081610a56565b825115610ee15782518084602001fd5b8160405162461bcd60e51b81526004018080602001828103825283818151815260200191508051906020019080838360005b83811015610f2b578181015183820152602001610f13565b50505050905090810190601f168015610f585780820380516001836020036101000a031916815260200191505b509250505060405180910390fdfe416464726573733a20696e73756666696369656e742062616c616e636520666f722063616c6c536166654d6174683a206d756c7469706c69636174696f6e206f766572666c6f775361666545524332303a204552433230206f7065726174696f6e20646964206e6f742073756363656564a26469706673582212208ea8b03d240a32ee3f25306a011a4c1374296f1a96c81d5fd234bbf6a344530664736f6c63430007060033",
  "linkReferences": {},
  "deployedLinkReferences": {}
}