{
  "_format": "hh-sol-artifact-1",
  "contractName": "MedianOracle",
  "sourceName": "contracts/oracle/MedianOracle.sol",
  "abi": [
    {
      "inputs": [
        {
          "internalType": "uint256",
          "name": "reportExpirationTimeSec_",
          "type": "uint256"
        },
        {
          "internalType": "uint256",
          "name": "reportDelaySec_",
          "type": "uint256"
        },
        {
          "internalType": "uint256",
          "name": "minimumProviders_",
          "type": "uint256"
        }
      ],
      "stateMutability": "nonpayable",
      "type": "constructor"
    },
    {
      "anonymous": false,
      "inputs": [
        {
          "indexed": true,
          "internalType": "address",
          "name": "previousOwner",
          "type": "address"
        },
        {
          "indexed": true,
          "internalType": "address",
          "name": "newOwner",
          "type": "address"
        }
      ],
      "name": "OwnershipTransferred",
      "type": "event"
    },
    {
      "anonymous": false,
      "inputs": [
        {
          "indexed": false,
          "internalType": "address",
          "name": "provider",
          "type": "address"
        }
      ],
      "name": "ProviderAdded",
      "type": "event"
    },
    {
      "anonymous": false,
      "inputs": [
        {
          "indexed": false,
          "internalType": "address",
          "name": "provider",
          "type": "address"
        }
      ],
      "name": "ProviderRemoved",
      "type": "event"
    },
    {
      "anonymous": false,
      "inputs": [
        {
          "indexed": true,
          "internalType": "address",
          "name": "provider",
          "type": "address"
        },
        {
          "indexed": false,
          "internalType": "uint256",
          "name": "payload",
          "type": "uint256"
        },
        {
          "indexed": false,
          "internalType": "uint256",
          "name": "timestamp",
          "type": "uint256"
        }
      ],
      "name": "ProviderReportPushed",
      "type": "event"
    },
    {
      "anonymous": false,
      "inputs": [
        {
          "indexed": false,
          "internalType": "address",
          "name": "provider",
          "type": "address"
        }
      ],
      "name": "ReportTimestampOutOfRange",
      "type": "event"
    },
    {
      "inputs": [
        {
          "internalType": "address",
          "name": "provider",
          "type": "address"
        }
      ],
      "name": "addProvider",
      "outputs": [],
      "stateMutability": "nonpayable",
      "type": "function"
    },
    {
      "inputs": [],
      "name": "getData",
      "outputs": [
        {
          "internalType": "uint256",
          "name": "",
          "type": "uint256"
        },
        {
          "internalType": "bool",
          "name": "",
          "type": "bool"
        }
      ],
      "stateMutability": "nonpayable",
      "type": "function"
    },
    {
      "inputs": [],
      "name": "minimumProviders",
      "outputs": [
        {
          "internalType": "uint256",
          "name": "",
          "type": "uint256"
        }
      ],
      "stateMutability": "view",
      "type": "function"
    },
    {
      "inputs": [],
      "name": "owner",
      "outputs": [
        {
          "internalType": "address",
          "name": "",
          "type": "address"
        }
      ],
      "stateMutability": "view",
      "type": "function"
    },
    {
      "inputs": [
        {
          "internalType": "address",
          "name": "",
          "type": "address"
        },
        {
          "internalType": "uint256",
          "name": "",
          "type": "uint256"
        }
      ],
      "name": "providerReports",
      "outputs": [
        {
          "internalType": "uint256",
          "name": "timestamp",
          "type": "uint256"
        },
        {
          "internalType": "uint256",
          "name": "payload",
          "type": "uint256"
        }
      ],
      "stateMutability": "view",
      "type": "function"
    },
    {
      "inputs": [
        {
          "internalType": "uint256",
          "name": "",
          "type": "uint256"
        }
      ],
      "name": "providers",
      "outputs": [
        {
          "internalType": "address",
          "name": "",
          "type": "address"
        }
      ],
      "stateMutability": "view",
      "type": "function"
    },
    {
      "inputs": [],
      "name": "providersSize",
      "outputs": [
        {
          "internalType": "uint256",
          "name": "",
          "type": "uint256"
        }
      ],
      "stateMutability": "view",
      "type": "function"
    },
    {
      "inputs": [],
      "name": "purgeReports",
      "outputs": [],
      "stateMutability": "nonpayable",
      "type": "function"
    },
    {
      "inputs": [
        {
          "internalType": "uint256",
          "name": "payload",
          "type": "uint256"
        }
      ],
      "name": "pushReport",
      "outputs": [],
      "stateMutability": "nonpayable",
      "type": "function"
    },
    {
      "inputs": [
        {
          "internalType": "address",
          "name": "provider",
          "type": "address"
        }
      ],
      "name": "removeProvider",
      "outputs": [],
      "stateMutability": "nonpayable",
      "type": "function"
    },
    {
      "inputs": [],
      "name": "renounceOwnership",
      "outputs": [],
      "stateMutability": "nonpayable",
      "type": "function"
    },
    {
      "inputs": [],
      "name": "reportDelaySec",
      "outputs": [
        {
          "internalType": "uint256",
          "name": "",
          "type": "uint256"
        }
      ],
      "stateMutability": "view",
      "type": "function"
    },
    {
      "inputs": [],
      "name": "reportExpirationTimeSec",
      "outputs": [
        {
          "internalType": "uint256",
          "name": "",
          "type": "uint256"
        }
      ],
      "stateMutability": "view",
      "type": "function"
    },
    {
      "inputs": [
        {
          "internalType": "uint256",
          "name": "minimumProviders_",
          "type": "uint256"
        }
      ],
      "name": "setMinimumProviders",
      "outputs": [],
      "stateMutability": "nonpayable",
      "type": "function"
    },
    {
      "inputs": [
        {
          "internalType": "uint256",
          "name": "reportDelaySec_",
          "type": "uint256"
        }
      ],
      "name": "setReportDelaySec",
      "outputs": [],
      "stateMutability": "nonpayable",
      "type": "function"
    },
    {
      "inputs": [
        {
          "internalType": "uint256",
          "name": "reportExpirationTimeSec_",
          "type": "uint256"
        }
      ],
      "name": "setReportExpirationTimeSec",
      "outputs": [],
      "stateMutability": "nonpayable",
      "type": "function"
    },
    {
      "inputs": [
        {
          "internalType": "address",
          "name": "newOwner",
          "type": "address"
        }
      ],
      "name": "transferOwnership",
      "outputs": [],
      "stateMutability": "nonpayable",
      "type": "function"
    }
  ],
  "bytecode": "0x6080604052600160055534801561001557600080fd5b5060405161116b38038061116b8339818101604052606081101561003857600080fd5b508051602082015160409092015190919060006100536100cc565b600080546001600160a01b0319166001600160a01b0383169081178255604051929350917f8be0079c531659141344cd1fd0a4f28419497f9722a3daafe3b4186f6b6457e0908290a3506312bed4008311156100ae57600080fd5b600081116100bb57600080fd5b6003929092556004556005556100d0565b3390565b61108c806100df6000396000f3fe608060405234801561001057600080fd5b506004361061010b5760003560e01c8063b577c0c7116100a2578063df98298511610071578063df98298514610234578063ef35bcce1461023c578063f10864b614610259578063f2fde38b1461029e578063f68be513146102c45761010b565b8063b577c0c7146101ff578063d13d597114610207578063da6b0eea1461020f578063dcbb82531461022c5761010b565b806350f3fc81116100de57806350f3fc8114610190578063715018a6146101c95780638a355a57146101d15780638da5cb5b146101f75761010b565b806312e800f1146101105780631e20d14b1461012a5780633bc5de301461014957806346e2577a1461016a575b600080fd5b6101186102e1565b60408051918252519081900360200190f35b6101476004803603602081101561014057600080fd5b50356102e7565b005b6101516103ea565b6040805192835290151560208301528051918290030190f35b6101476004803603602081101561018057600080fd5b50356001600160a01b0316610741565b6101ad600480360360208110156101a657600080fd5b5035610860565b604080516001600160a01b039092168252519081900360200190f35b61014761088a565b610147600480360360208110156101e757600080fd5b50356001600160a01b0316610936565b6101ad610aef565b610118610afe565b610147610b04565b6101476004803603602081101561022557600080fd5b5035610b41565b610118610ba8565b610118610bae565b6101476004803603602081101561025257600080fd5b5035610bb4565b6102856004803603604081101561026f57600080fd5b506001600160a01b038135169060200135610c28565b6040805192835260208301919091528051918290030190f35b610147600480360360208110156102b457600080fd5b50356001600160a01b0316610c58565b610147600480360360208110156102da57600080fd5b5035610d5a565b60045481565b33600081815260026020818152604092839020835180850190945280548085529281015491840191909152919061031d57600080fd5b602081015181516000911115610334576001610337565b60005b9050600081600103905042610362600454858560ff166002811061035757fe5b602002015190610dd2565b111561036d57600080fd5b42848260ff166002811061037d57fe5b600202016000018190555085848260ff166002811061039857fe5b60020201600101556040805187815242602082015281516001600160a01b038816927f460fcc5a1888965d48c2cab000fe20da51b1297d995af79a1924e2312d0d82b3928290030190a2505050505050565b6001546000908190818167ffffffffffffffff8111801561040a57600080fd5b50604051908082528060200260200182016040528015610434578160200160208202803683370190505b50905060008061044f60035442610e3590919063ffffffff16565b9050600061046860045442610e3590919063ffffffff16565b905060005b8581101561070b5760006001828154811061048457fe5b60009182526020808320909101546001600160a01b0316808352600291829052604080842081518083019092529194509183835b828210156104f45783826002020160405180604001604052908160008201548152602001600182015481525050815260200190600101906104b8565b50505050905060008160016002811061050957fe5b602002015151825151101561051f576001610522565b60005b9050600181900360008360ff84166002811061053a57fe5b602002015151905086811115610661576001600160a01b038516600090815260026020819052604082209060ff851690811061057257fe5b60020201549050888110156105c257604080516001600160a01b038816815290517f71f61642cb57ac11764a2f35fb4edc5361ced458af35bbed8f5ebf708c10e3419181900360200190a161065b565b8781111561060b57604080516001600160a01b038816815290517f71f61642cb57ac11764a2f35fb4edc5361ced458af35bbed8f5ebf708c10e3419181900360200190a161065b565b6001600160a01b03861660009081526002602081905260409091209060ff851690811061063457fe5b60020201600101548b8b806001019c508151811061064e57fe5b6020026020010181815250505b506106fa565b878110156106aa57604080516001600160a01b038716815290517f71f61642cb57ac11764a2f35fb4edc5361ced458af35bbed8f5ebf708c10e3419181900360200190a16106fa565b6001600160a01b03851660009081526002602081905260409091209060ff85169081106106d357fe5b60020201600101548a8a806001019b50815181106106ed57fe5b6020026020010181815250505b50506001909301925061046d915050565b506005548310156107275760008096509650505050505061073d565b6107318484610e92565b60019650965050505050505b9091565b610749610ff0565b6001600160a01b031661075a610aef565b6001600160a01b0316146107a3576040805162461bcd60e51b81526020600482018190526024820152600080516020611037833981519152604482015290519081900360640190fd5b6001600160a01b038116600090815260026020526040902054156107c657600080fd5b6001805480820182557fb10e2d527612073b26eecdfd717e6a320cf44b4afac2b0732d9fcbe2b7fa0cf60180546001600160a01b0319166001600160a01b0384169081179091556000908152600260205260408120906002020155604080516001600160a01b038316815290517fae9c2c6481964847714ce58f65a7f6dcc41d0d8394449bacdf161b5920c4744a9181900360200190a150565b6001818154811061087057600080fd5b6000918252602090912001546001600160a01b0316905081565b610892610ff0565b6001600160a01b03166108a3610aef565b6001600160a01b0316146108ec576040805162461bcd60e51b81526020600482018190526024820152600080516020611037833981519152604482015290519081900360640190fd5b600080546040516001600160a01b03909116907f8be0079c531659141344cd1fd0a4f28419497f9722a3daafe3b4186f6b6457e0908390a3600080546001600160a01b0319169055565b61093e610ff0565b6001600160a01b031661094f610aef565b6001600160a01b031614610998576040805162461bcd60e51b81526020600482018190526024820152600080516020611037833981519152604482015290519081900360640190fd5b6001600160a01b03811660009081526002602052604081206109b991610ff4565b60005b600154811015610aeb57816001600160a01b0316600182815481106109dd57fe5b6000918252602090912001546001600160a01b03161415610ae3576001805490820114610a6b57600180546000198101908110610a1657fe5b600091825260209091200154600180546001600160a01b039092169183908110610a3c57fe5b9060005260206000200160006101000a8154816001600160a01b0302191690836001600160a01b031602179055505b6001805480610a7657fe5b6001900381819060005260206000200160006101000a8154906001600160a01b03021916905590557f1589f8555933761a3cff8aa925061be3b46e2dd43f621322ab611d300f62b1d98260405180826001600160a01b0316815260200191505060405180910390a1610aeb565b6001016109bc565b5050565b6000546001600160a01b031690565b60055481565b33600081815260026020526040902054610b1d57600080fd5b6001600160a01b031660009081526002602081905260409091206001808255910155565b610b49610ff0565b6001600160a01b0316610b5a610aef565b6001600160a01b031614610ba3576040805162461bcd60e51b81526020600482018190526024820152600080516020611037833981519152604482015290519081900360640190fd5b600455565b60015490565b60035481565b610bbc610ff0565b6001600160a01b0316610bcd610aef565b6001600160a01b031614610c16576040805162461bcd60e51b81526020600482018190526024820152600080516020611037833981519152604482015290519081900360640190fd5b60008111610c2357600080fd5b600555565b60026020528160005260406000208160028110610c4457600080fd5b600202018054600190910154909250905082565b610c60610ff0565b6001600160a01b0316610c71610aef565b6001600160a01b031614610cba576040805162461bcd60e51b81526020600482018190526024820152600080516020611037833981519152604482015290519081900360640190fd5b6001600160a01b038116610cff5760405162461bcd60e51b81526004018080602001828103825260268152602001806110116026913960400191505060405180910390fd5b600080546040516001600160a01b03808516939216917f8be0079c531659141344cd1fd0a4f28419497f9722a3daafe3b4186f6b6457e091a3600080546001600160a01b0319166001600160a01b0392909216919091179055565b610d62610ff0565b6001600160a01b0316610d73610aef565b6001600160a01b031614610dbc576040805162461bcd60e51b81526020600482018190526024820152600080516020611037833981519152604482015290519081900360640190fd5b6312bed400811115610dcd57600080fd5b600355565b600082820183811015610e2c576040805162461bcd60e51b815260206004820152601b60248201527f536166654d6174683a206164646974696f6e206f766572666c6f770000000000604482015290519081900360640190fd5b90505b92915050565b600082821115610e8c576040805162461bcd60e51b815260206004820152601e60248201527f536166654d6174683a207375627472616374696f6e206f766572666c6f770000604482015290519081900360640190fd5b50900390565b60008082118015610ea4575081835110155b610ead57600080fd5b60015b82811015610f6c57805b600081118015610ef25750848181518110610ed157fe5b6020026020010151856001830381518110610ee857fe5b6020026020010151115b15610f63576000858281518110610f0557fe5b60200260200101519050856001830381518110610f1e57fe5b6020026020010151868381518110610f3257fe5b60200260200101818152505080866001840381518110610f4e57fe5b60209081029190910101525060001901610eba565b50600101610eb0565b506002820660011415610f9757826002830481518110610f8857fe5b60200260200101519050610e2f565b6002610fe18460018386040381518110610fad57fe5b60200260200101518560028681610fc057fe5b0481518110610fcb57fe5b6020026020010151610dd290919063ffffffff16565b81610fe857fe5b049050610e2f565b3390565b506000808255600182018190556002820181905560039091015556fe4f776e61626c653a206e6577206f776e657220697320746865207a65726f20616464726573734f776e61626c653a2063616c6c6572206973206e6f7420746865206f776e6572a2646970667358221220b9cbf2d1408fb9f795ec2f24b665c46880a89bc4cf284b9afddf4b92cb1112c564736f6c63430007060033",
  "linkReferences": {},
  "deployedLinkReferences": {}
}