{
  "_format": "hh-sol-artifact-1",
  "contractName": "Orchestrator",
  "sourceName": "contracts/Orchestrator.sol",
  "abi": [
    {
      "inputs": [
        {
          "internalType": "address",
          "name": "policy_",
          "type": "address"
        }
      ],
      "stateMutability": "nonpayable",
      "type": "constructor"
    },
    {
      "anonymous": false,
      "inputs": [
        {
          "indexed": true,
          "internalType": "address",
          "name": "previousOwner",
          "type": "address"
        },
        {
          "indexed": true,
          "internalType": "address",
          "name": "newOwner",
          "type": "address"
        }
      ],
      "name": "OwnershipTransferred",
      "type": "event"
    },
    {
      "anonymous": false,
      "inputs": [
        {
          "indexed": true,
          "internalType": "address",
          "name": "destination",
          "type": "address"
        },
        {
          "indexed": false,
          "internalType": "uint256",
          "name": "index",
          "type": "uint256"
        },
        {
          "indexed": false,
          "internalType": "bytes",
          "name": "data",
          "type": "bytes"
        }
      ],
      "name": "TransactionFailed",
      "type": "event"
    },
    {
      "inputs": [
        {
          "internalType": "address",
          "name": "destination",
          "type": "address"
        },
        {
          "internalType": "bytes",
          "name": "data",
          "type": "bytes"
        }
      ],
      "name": "addTransaction",
      "outputs": [],
      "stateMutability": "nonpayable",
      "type": "function"
    },
    {
      "inputs": [],
      "name": "owner",
      "outputs": [
        {
          "internalType": "address",
          "name": "",
          "type": "address"
        }
      ],
      "stateMutability": "view",
      "type": "function"
    },
    {
      "inputs": [],
      "name": "policy",
      "outputs": [
        {
          "internalType": "contract UFragmentsPolicy",
          "name": "",
          "type": "address"
        }
      ],
      "stateMutability": "view",
      "type": "function"
    },
    {
      "inputs": [],
      "name": "rebase",
      "outputs": [],
      "stateMutability": "nonpayable",
      "type": "function"
    },
    {
      "inputs": [
        {
          "internalType": "uint256",
          "name": "index",
          "type": "uint256"
        }
      ],
      "name": "removeTransaction",
      "outputs": [],
      "stateMutability": "nonpayable",
      "type": "function"
    },
    {
      "inputs": [],
      "name": "renounceOwnership",
      "outputs": [],
      "stateMutability": "nonpayable",
      "type": "function"
    },
    {
      "inputs": [
        {
          "internalType": "uint256",
          "name": "index",
          "type": "uint256"
        },
        {
          "internalType": "bool",
          "name": "enabled",
          "type": "bool"
        }
      ],
      "name": "setTransactionEnabled",
      "outputs": [],
      "stateMutability": "nonpayable",
      "type": "function"
    },
    {
      "inputs": [
        {
          "internalType": "uint256",
          "name": "",
          "type": "uint256"
        }
      ],
      "name": "transactions",
      "outputs": [
        {
          "internalType": "bool",
          "name": "enabled",
          "type": "bool"
        },
        {
          "internalType": "address",
          "name": "destination",
          "type": "address"
        },
        {
          "internalType": "bytes",
          "name": "data",
          "type": "bytes"
        }
      ],
      "stateMutability": "view",
      "type": "function"
    },
    {
      "inputs": [],
      "name": "transactionsSize",
      "outputs": [
        {
          "internalType": "uint256",
          "name": "",
          "type": "uint256"
        }
      ],
      "stateMutability": "view",
      "type": "function"
    },
    {
      "inputs": [
        {
          "internalType": "address",
          "name": "newOwner",
          "type": "address"
        }
      ],
      "name": "transferOwnership",
      "outputs": [],
      "stateMutability": "nonpayable",
      "type": "function"
    }
  ],
  "bytecode": "0x60806040523480156200001157600080fd5b50604051620010e4380380620010e4833981810160405260208110156200003757600080fd5b50516200004362000069565b606680546001600160a01b0319166001600160a01b0392909216919091179055620002fa565b600054610100900460ff16806200008557506200008562000127565b8062000094575060005460ff16155b620000d15760405162461bcd60e51b815260040180806020018281038252602e815260200180620010b6602e913960400191505060405180910390fd5b600054610100900460ff16158015620000fd576000805460ff1961ff0019909116610100171660011790555b6200010762000145565b62000111620001ed565b801562000124576000805461ff00191690555b50565b60006200013f30620002f060201b62000b771760201c565b15905090565b600054610100900460ff16806200016157506200016162000127565b8062000170575060005460ff16155b620001ad5760405162461bcd60e51b815260040180806020018281038252602e815260200180620010b6602e913960400191505060405180910390fd5b600054610100900460ff1615801562000111576000805460ff1961ff001990911661010017166001179055801562000124576000805461ff001916905550565b600054610100900460ff16806200020957506200020962000127565b8062000218575060005460ff16155b620002555760405162461bcd60e51b815260040180806020018281038252602e815260200180620010b6602e913960400191505060405180910390fd5b600054610100900460ff1615801562000281576000805460ff1961ff0019909116610100171660011790555b60006200028d620002f6565b603380546001600160a01b0319166001600160a01b038316908117909155604051919250906000907f8be0079c531659141344cd1fd0a4f28419497f9722a3daafe3b4186f6b6457e0908290a350801562000124576000805461ff001916905550565b3b151590565b3390565b610dac806200030a6000396000f3fe608060405234801561001057600080fd5b506004361061009e5760003560e01c80638da5cb5b116100665780638da5cb5b146101c957806391d4ec18146101d15780639ace38c2146101eb578063af14052c14610299578063f2fde38b146102a15761009e565b80630505c8c9146100a3578063126e19be146100c757806346c3bd1f1461017f5780636e9dde991461019c578063715018a6146101c1575b600080fd5b6100ab6102c7565b604080516001600160a01b039092168252519081900360200190f35b61017d600480360360408110156100dd57600080fd5b6001600160a01b03823516919081019060408101602082013564010000000081111561010857600080fd5b82018360208201111561011a57600080fd5b8035906020019184600183028401116401000000008311171561013c57600080fd5b91908080601f0160208091040260200160405190810160405280939291908181526020018383808284376000920191909152509295506102d6945050505050565b005b61017d6004803603602081101561019557600080fd5b5035610401565b61017d600480360360408110156101b257600080fd5b508035906020013515156105a3565b61017d610676565b6100ab610722565b6101d9610731565b60408051918252519081900360200190f35b6102086004803603602081101561020157600080fd5b5035610737565b604051808415158152602001836001600160a01b0316815260200180602001828103825283818151815260200191508051906020019080838360005b8381101561025c578181015183820152602001610244565b50505050905090810190601f1680156102895780820380516001836020036101000a031916815260200191505b5094505050505060405180910390f35b61017d6107ff565b61017d600480360360208110156102b757600080fd5b50356001600160a01b0316610a74565b6066546001600160a01b031681565b6102de610b7d565b6001600160a01b03166102ef610722565b6001600160a01b031614610338576040805162461bcd60e51b81526020600482018190526024820152600080516020610d57833981519152604482015290519081900360640190fd5b6040805160608101825260018082526001600160a01b038086166020808501918252948401868152606580549485018155600052845160029094027f8ff97419363ffd7000167f130ef7168fbea05faf9251824ca5043f113cc6a7c781018054935190941661010002610100600160a81b031995151560ff199094169390931794909416919091178255518051939491936103fa937f8ff97419363ffd7000167f130ef7168fbea05faf9251824ca5043f113cc6a7c801929190910190610ba4565b5050505050565b610409610b7d565b6001600160a01b031661041a610722565b6001600160a01b031614610463576040805162461bcd60e51b81526020600482018190526024820152600080516020610d57833981519152604482015290519081900360640190fd5b60655481106104af576040805162461bcd60e51b8152602060048201526013602482015272696e646578206f7574206f6620626f756e647360681b604482015290519081900360640190fd5b60655460001901811015610560576065805460001981019081106104cf57fe5b9060005260206000209060020201606582815481106104ea57fe5b6000918252602090912082546002928302909101805460ff191660ff9092161515919091178082558354610100600160a81b0319909116610100918290046001600160a01b0316820217825560018085018054939461055c948387019492938116159092026000190190911604610c30565b5050505b606580548061056b57fe5b60008281526020812060026000199093019283020180546001600160a81b03191681559061059c6001830182610cb3565b5050905550565b6105ab610b7d565b6001600160a01b03166105bc610722565b6001600160a01b031614610605576040805162461bcd60e51b81526020600482018190526024820152600080516020610d57833981519152604482015290519081900360640190fd5b60655482106106455760405162461bcd60e51b8152600401808060200182810382526028815260200180610d2f6028913960400191505060405180910390fd5b806065838154811061065357fe5b60009182526020909120600290910201805460ff19169115159190911790555050565b61067e610b7d565b6001600160a01b031661068f610722565b6001600160a01b0316146106d8576040805162461bcd60e51b81526020600482018190526024820152600080516020610d57833981519152604482015290519081900360640190fd5b6033546040516000916001600160a01b0316907f8be0079c531659141344cd1fd0a4f28419497f9722a3daafe3b4186f6b6457e0908390a3603380546001600160a01b0319169055565b6033546001600160a01b031690565b60655490565b6065818154811061074757600080fd5b6000918252602091829020600291820201805460018083018054604080516101009483161585026000190190921696909604601f810188900488028201880190965285815260ff84169750919092046001600160a01b031694929390928301828280156107f55780601f106107ca576101008083540402835291602001916107f5565b820191906000526020600020905b8154815290600101906020018083116107d857829003601f168201915b5050505050905083565b33321461080b57600080fd5b606660009054906101000a90046001600160a01b03166001600160a01b031663af14052c6040518163ffffffff1660e01b8152600401600060405180830381600087803b15801561085b57600080fd5b505af115801561086f573d6000803e3d6000fd5b5050505060005b606554811015610a715760006065828154811061088f57fe5b60009182526020909120600290910201805490915060ff1615610a685780546001808301805460408051602060026101009685161587026000190190941693909304601f81018490048402820184019092528181526000956109579590046001600160a01b031693909290919083018282801561094d5780601f106109225761010080835404028352916020019161094d565b820191906000526020600020905b81548152906001019060200180831161093057829003601f168201915b5050505050610b81565b905080610a665781546040805185815260208101828152600180870180546002610100938216158402600019019091160494840185905294046001600160a01b0316937f8091ecaaa54ebb82e02d36c2c336528e0fcb9b3430fc1291ac88295032b9c263938893919290606083019084908015610a155780601f106109ea57610100808354040283529160200191610a15565b820191906000526020600020905b8154815290600101906020018083116109f857829003601f168201915b5050935050505060405180910390a26040805162461bcd60e51b8152602060048201526012602482015271151c985b9cd858dd1a5bdb8811985a5b195960721b604482015290519081900360640190fd5b505b50600101610876565b50565b610a7c610b7d565b6001600160a01b0316610a8d610722565b6001600160a01b031614610ad6576040805162461bcd60e51b81526020600482018190526024820152600080516020610d57833981519152604482015290519081900360640190fd5b6001600160a01b038116610b1b5760405162461bcd60e51b8152600401808060200182810382526026815260200180610d096026913960400191505060405180910390fd5b6033546040516001600160a01b038084169216907f8be0079c531659141344cd1fd0a4f28419497f9722a3daafe3b4186f6b6457e090600090a3603380546001600160a01b0319166001600160a01b0392909216919091179055565b3b151590565b3390565b6000806040516020840160008286518360008a6187965a03f19695505050505050565b828054600181600116156101000203166002900490600052602060002090601f016020900481019282610bda5760008555610c20565b82601f10610bf357805160ff1916838001178555610c20565b82800160010185558215610c20579182015b82811115610c20578251825591602001919060010190610c05565b50610c2c929150610cf3565b5090565b828054600181600116156101000203166002900490600052602060002090601f016020900481019282610c665760008555610c20565b82601f10610c775780548555610c20565b82800160010185558215610c2057600052602060002091601f016020900482015b82811115610c20578254825591600101919060010190610c98565b50805460018160011615610100020316600290046000825580601f10610cd95750610a71565b601f016020900490600052602060002090810190610a7191905b5b80821115610c2c5760008155600101610cf456fe4f776e61626c653a206e6577206f776e657220697320746865207a65726f2061646472657373696e646578206d75737420626520696e2072616e6765206f662073746f726564207478206c6973744f776e61626c653a2063616c6c6572206973206e6f7420746865206f776e6572a264697066735822122027448e6eb8368d99e99bacc65e09fb0cf7e4dad91fc1e475683b447e0173f82864736f6c63430007060033496e697469616c697a61626c653a20636f6e747261637420697320616c726561647920696e697469616c697a6564",
  "linkReferences": {},
  "deployedLinkReferences": {}
}