{
  "_format": "hh-sol-artifact-1",
  "contractName": "UFragmentsPolicy",
  "sourceName": "contracts/UFragmentsPolicy.sol",
  "abi": [
    {
      "anonymous": false,
      "inputs": [
        {
          "indexed": true,
          "internalType": "uint256",
          "name": "epoch",
          "type": "uint256"
        },
        {
          "indexed": false,
          "internalType": "uint256",
          "name": "exchangeRate",
          "type": "uint256"
        },
        {
          "indexed": false,
          "internalType": "uint256",
          "name": "cpi",
          "type": "uint256"
        },
        {
          "indexed": false,
          "internalType": "int256",
          "name": "requestedSupplyAdjustment",
          "type": "int256"
        },
        {
          "indexed": false,
          "internalType": "uint256",
          "name": "timestampSec",
          "type": "uint256"
        }
      ],
      "name": "LogRebase",
      "type": "event"
    },
    {
      "anonymous": false,
      "inputs": [
        {
          "indexed": true,
          "internalType": "address",
          "name": "previousOwner",
          "type": "address"
        },
        {
          "indexed": true,
          "internalType": "address",
          "name": "newOwner",
          "type": "address"
        }
      ],
      "name": "OwnershipTransferred",
      "type": "event"
    },
    {
      "inputs": [],
      "name": "cpiOracle",
      "outputs": [
        {
          "internalType": "contract IOracle",
          "name": "",
          "type": "address"
        }
      ],
      "stateMutability": "view",
      "type": "function"
    },
    {
      "inputs": [],
      "name": "deviationThreshold",
      "outputs": [
        {
          "internalType": "uint256",
          "name": "",
          "type": "uint256"
        }
      ],
      "stateMutability": "view",
      "type": "function"
    },
    {
      "inputs": [],
      "name": "epoch",
      "outputs": [
        {
          "internalType": "uint256",
          "name": "",
          "type": "uint256"
        }
      ],
      "stateMutability": "view",
      "type": "function"
    },
    {
      "inputs": [],
      "name": "globalEpochAndAMPLSupply",
      "outputs": [
        {
          "internalType": "uint256",
          "name": "",
          "type": "uint256"
        },
        {
          "internalType": "uint256",
          "name": "",
          "type": "uint256"
        }
      ],
      "stateMutability": "view",
      "type": "function"
    },
    {
      "inputs": [],
      "name": "inRebaseWindow",
      "outputs": [
        {
          "internalType": "bool",
          "name": "",
          "type": "bool"
        }
      ],
      "stateMutability": "view",
      "type": "function"
    },
    {
      "inputs": [
        {
          "internalType": "address",
          "name": "owner_",
          "type": "address"
        },
        {
          "internalType": "contract IUFragments",
          "name": "uFrags_",
          "type": "address"
        },
        {
          "internalType": "uint256",
          "name": "baseCpi_",
          "type": "uint256"
        }
      ],
      "name": "initialize",
      "outputs": [],
      "stateMutability": "nonpayable",
      "type": "function"
    },
    {
      "inputs": [],
      "name": "lastRebaseTimestampSec",
      "outputs": [
        {
          "internalType": "uint256",
          "name": "",
          "type": "uint256"
        }
      ],
      "stateMutability": "view",
      "type": "function"
    },
    {
      "inputs": [],
      "name": "marketOracle",
      "outputs": [
        {
          "internalType": "contract IOracle",
          "name": "",
          "type": "address"
        }
      ],
      "stateMutability": "view",
      "type": "function"
    },
    {
      "inputs": [],
      "name": "minRebaseTimeIntervalSec",
      "outputs": [
        {
          "internalType": "uint256",
          "name": "",
          "type": "uint256"
        }
      ],
      "stateMutability": "view",
      "type": "function"
    },
    {
      "inputs": [],
      "name": "orchestrator",
      "outputs": [
        {
          "internalType": "address",
          "name": "",
          "type": "address"
        }
      ],
      "stateMutability": "view",
      "type": "function"
    },
    {
      "inputs": [],
      "name": "owner",
      "outputs": [
        {
          "internalType": "address",
          "name": "",
          "type": "address"
        }
      ],
      "stateMutability": "view",
      "type": "function"
    },
    {
      "inputs": [],
      "name": "rebase",
      "outputs": [],
      "stateMutability": "nonpayable",
      "type": "function"
    },
    {
      "inputs": [],
      "name": "rebaseLag",
      "outputs": [
        {
          "internalType": "uint256",
          "name": "",
          "type": "uint256"
        }
      ],
      "stateMutability": "view",
      "type": "function"
    },
    {
      "inputs": [],
      "name": "rebaseWindowLengthSec",
      "outputs": [
        {
          "internalType": "uint256",
          "name": "",
          "type": "uint256"
        }
      ],
      "stateMutability": "view",
      "type": "function"
    },
    {
      "inputs": [],
      "name": "rebaseWindowOffsetSec",
      "outputs": [
        {
          "internalType": "uint256",
          "name": "",
          "type": "uint256"
        }
      ],
      "stateMutability": "view",
      "type": "function"
    },
    {
      "inputs": [],
      "name": "renounceOwnership",
      "outputs": [],
      "stateMutability": "nonpayable",
      "type": "function"
    },
    {
      "inputs": [
        {
          "internalType": "contract IOracle",
          "name": "cpiOracle_",
          "type": "address"
        }
      ],
      "name": "setCpiOracle",
      "outputs": [],
      "stateMutability": "nonpayable",
      "type": "function"
    },
    {
      "inputs": [
        {
          "internalType": "uint256",
          "name": "deviationThreshold_",
          "type": "uint256"
        }
      ],
      "name": "setDeviationThreshold",
      "outputs": [],
      "stateMutability": "nonpayable",
      "type": "function"
    },
    {
      "inputs": [
        {
          "internalType": "contract IOracle",
          "name": "marketOracle_",
          "type": "address"
        }
      ],
      "name": "setMarketOracle",
      "outputs": [],
      "stateMutability": "nonpayable",
      "type": "function"
    },
    {
      "inputs": [
        {
          "internalType": "address",
          "name": "orchestrator_",
          "type": "address"
        }
      ],
      "name": "setOrchestrator",
      "outputs": [],
      "stateMutability": "nonpayable",
      "type": "function"
    },
    {
      "inputs": [
        {
          "internalType": "uint256",
          "name": "rebaseLag_",
          "type": "uint256"
        }
      ],
      "name": "setRebaseLag",
      "outputs": [],
      "stateMutability": "nonpayable",
      "type": "function"
    },
    {
      "inputs": [
        {
          "internalType": "uint256",
          "name": "minRebaseTimeIntervalSec_",
          "type": "uint256"
        },
        {
          "internalType": "uint256",
          "name": "rebaseWindowOffsetSec_",
          "type": "uint256"
        },
        {
          "internalType": "uint256",
          "name": "rebaseWindowLengthSec_",
          "type": "uint256"
        }
      ],
      "name": "setRebaseTimingParameters",
      "outputs": [],
      "stateMutability": "nonpayable",
      "type": "function"
    },
    {
      "inputs": [
        {
          "internalType": "address",
          "name": "newOwner",
          "type": "address"
        }
      ],
      "name": "transferOwnership",
      "outputs": [],
      "stateMutability": "nonpayable",
      "type": "function"
    },
    {
      "inputs": [],
      "name": "uFrags",
      "outputs": [
        {
          "internalType": "contract IUFragments",
          "name": "",
          "type": "address"
        }
      ],
      "stateMutability": "view",
      "type": "function"
    }
  ],
  "bytecode": "0x608060405234801561001057600080fd5b5061159f806100206000396000f3fe608060405234801561001057600080fd5b50600436106101585760003560e01c8063715018a6116100c3578063af14052c1161007c578063af14052c146102ff578063b74795d914610307578063cd28ef0d1461030f578063d3d55d5114610335578063d94ad8371461033d578063f2fde38b1461034557610158565b8063715018a6146102b15780638da5cb5b146102b9578063900cf0cf146102c15780639466120f146102c95780639e30bac5146102d1578063ab33c5ca146102f757610158565b80633d6a46e5116101155780633d6a46e51461021957806353a15edc1461023f578063609615281461025c57806363f6d4c8146102805780636f0b725b146102885780637052b902146102a957610158565b8063021018991461015d578063111d04981461017757806316250fd4146101935780631794bb3c146101be57806320ce8389146101f45780633a93069b14610211575b600080fd5b61016561036b565b60408051918252519081900360200190f35b61017f610371565b604080519115158252519081900360200190f35b6101bc600480360360608110156101a957600080fd5b50803590602081013590604001356103b8565b005b6101bc600480360360608110156101d457600080fd5b506001600160a01b03813581169160208101359091169060400135610441565b6101bc6004803603602081101561020a57600080fd5b5035610544565b6101656105b8565b6101bc6004803603602081101561022f57600080fd5b50356001600160a01b03166105be565b6101bc6004803603602081101561025557600080fd5b5035610642565b6102646106a9565b604080516001600160a01b039092168252519081900360200190f35b6101656106b8565b6102906106be565b6040805192835260208301919091528051918290030190f35b610165610747565b6101bc61074d565b6102646107f9565b610165610808565b61016561080e565b6101bc600480360360208110156102e757600080fd5b50356001600160a01b0316610814565b610264610898565b6101bc6108a7565b610264610cee565b6101bc6004803603602081101561032557600080fd5b50356001600160a01b0316610cfd565b610264610d81565b610165610d90565b6101bc6004803603602081101561035b57600080fd5b50356001600160a01b0316610d96565b606b5481565b6000606d5461038b606b5442610e9990919063ffffffff16565b101580156103b35750606e54606d546103a391610f02565b606b546103b1904290610e99565b105b905090565b6103c0610f63565b6001600160a01b03166103d16107f9565b6001600160a01b03161461041a576040805162461bcd60e51b8152602060048201819052602482015260008051602061154a833981519152604482015290519081900360640190fd5b6000831161042757600080fd5b82821061043357600080fd5b606b92909255606d55606e55565b600054610100900460ff168061045a575061045a610f67565b80610468575060005460ff16155b6104a35760405162461bcd60e51b815260040180806020018281038252602e8152602001806114fb602e913960400191505060405180910390fd5b600054610100900460ff161580156104ce576000805460ff1961ff0019909116610100171660011790555b6104d6610f78565b6104df84610d96565b668e1bc9bf040000606955601e606a5562015180606b5561fd20606d55610a8c606e556000606c819055606f55606580546001600160a01b0319166001600160a01b0385161790556068829055801561053e576000805461ff00191690555b50505050565b61054c610f63565b6001600160a01b031661055d6107f9565b6001600160a01b0316146105a6576040805162461bcd60e51b8152602060048201819052602482015260008051602061154a833981519152604482015290519081900360640190fd5b600081116105b357600080fd5b606a55565b606c5481565b6105c6610f63565b6001600160a01b03166105d76107f9565b6001600160a01b031614610620576040805162461bcd60e51b8152602060048201819052602482015260008051602061154a833981519152604482015290519081900360640190fd5b606680546001600160a01b0319166001600160a01b0392909216919091179055565b61064a610f63565b6001600160a01b031661065b6107f9565b6001600160a01b0316146106a4576040805162461bcd60e51b8152602060048201819052602482015260008051602061154a833981519152604482015290519081900360640190fd5b606955565b6067546001600160a01b031681565b606a5481565b600080606f54606560009054906101000a90046001600160a01b03166001600160a01b03166318160ddd6040518163ffffffff1660e01b815260040160206040518083038186803b15801561071257600080fd5b505afa158015610726573d6000803e3d6000fd5b505050506040513d602081101561073c57600080fd5b505190925090509091565b606d5481565b610755610f63565b6001600160a01b03166107666107f9565b6001600160a01b0316146107af576040805162461bcd60e51b8152602060048201819052602482015260008051602061154a833981519152604482015290519081900360640190fd5b6033546040516000916001600160a01b0316907f8be0079c531659141344cd1fd0a4f28419497f9722a3daafe3b4186f6b6457e0908390a3603380546001600160a01b0319169055565b6033546001600160a01b031690565b606f5481565b606e5481565b61081c610f63565b6001600160a01b031661082d6107f9565b6001600160a01b031614610876576040805162461bcd60e51b8152602060048201819052602482015260008051602061154a833981519152604482015290519081900360640190fd5b606780546001600160a01b0319166001600160a01b0392909216919091179055565b6066546001600160a01b031681565b6070546001600160a01b031633146108be57600080fd5b6108c6610371565b6108cf57600080fd5b426108e7606b54606c54610f0290919063ffffffff16565b106108f157600080fd5b61091c606d5461091661090f606b5442610e9990919063ffffffff16565b429061102a565b90610f02565b606c55606f5461092d906001610f02565b606f55606654604080516303bc5de360e41b8152815160009384936001600160a01b0390911692633bc5de30926004808301939282900301818787803b15801561097657600080fd5b505af115801561098a573d6000803e3d6000fd5b505050506040513d60408110156109a057600080fd5b5080516020909101519092509050806109b857600080fd5b6068546000906109da906109d485670de0b6b3a7640000611087565b906110e0565b606754604080516303bc5de360e41b8152815193945060009384936001600160a01b031692633bc5de30926004808201939182900301818787803b158015610a2157600080fd5b505af1158015610a35573d6000803e3d6000fd5b505050506040513d6040811015610a4b57600080fd5b508051602090910151909250905080610a6357600080fd5b69d3c21bcecceda1000000821115610a835769d3c21bcecceda100000091505b6000610a8f8385611147565b9050610aa6610a9f606a54611212565b829061122c565b9050600081138015610b4d575069d3c21bcecceda10000006001600160ff1b0304610b4b82606560009054906101000a90046001600160a01b03166001600160a01b03166318160ddd6040518163ffffffff1660e01b815260040160206040518083038186803b158015610b1957600080fd5b505afa158015610b2d573d6000803e3d6000fd5b505050506040513d6020811015610b4357600080fd5b505190610f02565b115b15610bf757610bf4610bef606560009054906101000a90046001600160a01b03166001600160a01b03166318160ddd6040518163ffffffff1660e01b815260040160206040518083038186803b158015610ba657600080fd5b505afa158015610bba573d6000803e3d6000fd5b505050506040513d6020811015610bd057600080fd5b5051759abe14cd44753b52c4926a9672793542d78c3615cf3a9061102a565b611212565b90505b606554606f5460408051637a43e23f60e01b8152600481019290925260248201849052516000926001600160a01b031691637a43e23f91604480830192602092919082900301818787803b158015610c4e57600080fd5b505af1158015610c62573d6000803e3d6000fd5b505050506040513d6020811015610c7857600080fd5b50519050759abe14cd44753b52c4926a9672793542d78c3615cf3a811115610c9c57fe5b606f5460408051868152602081018a905280820185905242606082015290517f41d948a7f29cc695f5d4b3ec147f766bffa165ddd317470fbe05c86d0a9c3e049181900360800190a250505050505050565b6070546001600160a01b031681565b610d05610f63565b6001600160a01b0316610d166107f9565b6001600160a01b031614610d5f576040805162461bcd60e51b8152602060048201819052602482015260008051602061154a833981519152604482015290519081900360640190fd5b607080546001600160a01b0319166001600160a01b0392909216919091179055565b6065546001600160a01b031681565b60695481565b610d9e610f63565b6001600160a01b0316610daf6107f9565b6001600160a01b031614610df8576040805162461bcd60e51b8152602060048201819052602482015260008051602061154a833981519152604482015290519081900360640190fd5b6001600160a01b038116610e3d5760405162461bcd60e51b81526004018080602001828103825260268152602001806114d56026913960400191505060405180910390fd5b6033546040516001600160a01b038084169216907f8be0079c531659141344cd1fd0a4f28419497f9722a3daafe3b4186f6b6457e090600090a3603380546001600160a01b0319166001600160a01b0392909216919091179055565b6000808211610eef576040805162461bcd60e51b815260206004820152601860248201527f536166654d6174683a206d6f64756c6f206279207a65726f0000000000000000604482015290519081900360640190fd5b818381610ef857fe5b0690505b92915050565b600082820183811015610f5c576040805162461bcd60e51b815260206004820152601b60248201527f536166654d6174683a206164646974696f6e206f766572666c6f770000000000604482015290519081900360640190fd5b9392505050565b3390565b6000610f723061125d565b15905090565b600054610100900460ff1680610f915750610f91610f67565b80610f9f575060005460ff16155b610fda5760405162461bcd60e51b815260040180806020018281038252602e8152602001806114fb602e913960400191505060405180910390fd5b600054610100900460ff16158015611005576000805460ff1961ff0019909116610100171660011790555b61100d611263565b611015611303565b8015611027576000805461ff00191690555b50565b600082821115611081576040805162461bcd60e51b815260206004820152601e60248201527f536166654d6174683a207375627472616374696f6e206f766572666c6f770000604482015290519081900360640190fd5b50900390565b60008261109657506000610efc565b828202828482816110a357fe5b0414610f5c5760405162461bcd60e51b81526004018080602001828103825260218152602001806115296021913960400191505060405180910390fd5b6000808211611136576040805162461bcd60e51b815260206004820152601a60248201527f536166654d6174683a206469766973696f6e206279207a65726f000000000000604482015290519081900360640190fd5b81838161113f57fe5b049392505050565b600061115383836113fc565b1561116057506000610efc565b600061116b83611212565b905061120a816112046111878461118189611212565b9061145a565b606554604080516318160ddd60e01b815290516111fe926001600160a01b0316916318160ddd916004808301926020929190829003018186803b1580156111cd57600080fd5b505afa1580156111e1573d6000803e3d6000fd5b505050506040513d60208110156111f757600080fd5b5051611212565b9061148d565b9061122c565b949350505050565b60006001600160ff1b0382111561122857600080fd5b5090565b6000816000191415806112435750600160ff1b8314155b61124c57600080fd5b81838161125557fe5b059392505050565b3b151590565b600054610100900460ff168061127c575061127c610f67565b8061128a575060005460ff16155b6112c55760405162461bcd60e51b815260040180806020018281038252602e8152602001806114fb602e913960400191505060405180910390fd5b600054610100900460ff16158015611015576000805460ff1961ff0019909116610100171660011790558015611027576000805461ff001916905550565b600054610100900460ff168061131c575061131c610f67565b8061132a575060005460ff16155b6113655760405162461bcd60e51b815260040180806020018281038252602e8152602001806114fb602e913960400191505060405180910390fd5b600054610100900460ff16158015611390576000805460ff1961ff0019909116610100171660011790555b600061139a610f63565b603380546001600160a01b0319166001600160a01b038316908117909155604051919250906000907f8be0079c531659141344cd1fd0a4f28419497f9722a3daafe3b4186f6b6457e0908290a3508015611027576000805461ff001916905550565b60008061141c6012600a0a6109d46069548661108790919063ffffffff16565b9050828410158015611436575080611434858561102a565b105b8061120a5750828410801561120a575080611451848661102a565b10949350505050565b600081830381831280159061146f5750838113155b80611484575060008312801561148457508381135b610f5c57600080fd5b6000828202600160ff1b811415806114ae5750600160ff1b84811690841614155b6114b757600080fd5b8215806114845750838382816114c957fe5b0514610f5c57600080fdfe4f776e61626c653a206e6577206f776e657220697320746865207a65726f2061646472657373496e697469616c697a61626c653a20636f6e747261637420697320616c726561647920696e697469616c697a6564536166654d6174683a206d756c7469706c69636174696f6e206f766572666c6f774f776e61626c653a2063616c6c6572206973206e6f7420746865206f776e6572a2646970667358221220c3f03fcecf13104e501dadaac9475c80c994e35bdf0f526ad1ad62c7f595d6cb64736f6c63430007060033",
  "linkReferences": {},
  "deployedLinkReferences": {}
}