{
  "_format": "hh-sol-artifact-1",
  "contractName": "UFragments",
  "sourceName": "contracts/UFragments.sol",
  "abi": [
    {
      "anonymous": false,
      "inputs": [
        {
          "indexed": true,
          "internalType": "address",
          "name": "owner",
          "type": "address"
        },
        {
          "indexed": true,
          "internalType": "address",
          "name": "spender",
          "type": "address"
        },
        {
          "indexed": false,
          "internalType": "uint256",
          "name": "value",
          "type": "uint256"
        }
      ],
      "name": "Approval",
      "type": "event"
    },
    {
      "anonymous": false,
      "inputs": [
        {
          "indexed": false,
          "internalType": "address",
          "name": "monetaryPolicy",
          "type": "address"
        }
      ],
      "name": "LogMonetaryPolicyUpdated",
      "type": "event"
    },
    {
      "anonymous": false,
      "inputs": [
        {
          "indexed": true,
          "internalType": "uint256",
          "name": "epoch",
          "type": "uint256"
        },
        {
          "indexed": false,
          "internalType": "uint256",
          "name": "totalSupply",
          "type": "uint256"
        }
      ],
      "name": "LogRebase",
      "type": "event"
    },
    {
      "anonymous": false,
      "inputs": [
        {
          "indexed": true,
          "internalType": "address",
          "name": "previousOwner",
          "type": "address"
        },
        {
          "indexed": true,
          "internalType": "address",
          "name": "newOwner",
          "type": "address"
        }
      ],
      "name": "OwnershipTransferred",
      "type": "event"
    },
    {
      "anonymous": false,
      "inputs": [
        {
          "indexed": true,
          "internalType": "address",
          "name": "from",
          "type": "address"
        },
        {
          "indexed": true,
          "internalType": "address",
          "name": "to",
          "type": "address"
        },
        {
          "indexed": false,
          "internalType": "uint256",
          "name": "value",
          "type": "uint256"
        }
      ],
      "name": "Transfer",
      "type": "event"
    },
    {
      "inputs": [],
      "name": "DOMAIN_SEPARATOR",
      "outputs": [
        {
          "internalType": "bytes32",
          "name": "",
          "type": "bytes32"
        }
      ],
      "stateMutability": "view",
      "type": "function"
    },
    {
      "inputs": [],
      "name": "EIP712_DOMAIN",
      "outputs": [
        {
          "internalType": "bytes32",
          "name": "",
          "type": "bytes32"
        }
      ],
      "stateMutability": "view",
      "type": "function"
    },
    {
      "inputs": [],
      "name": "EIP712_REVISION",
      "outputs": [
        {
          "internalType": "string",
          "name": "",
          "type": "string"
        }
      ],
      "stateMutability": "view",
      "type": "function"
    },
    {
      "inputs": [],
      "name": "PERMIT_TYPEHASH",
      "outputs": [
        {
          "internalType": "bytes32",
          "name": "",
          "type": "bytes32"
        }
      ],
      "stateMutability": "view",
      "type": "function"
    },
    {
      "inputs": [
        {
          "internalType": "address",
          "name": "owner_",
          "type": "address"
        },
        {
          "internalType": "address",
          "name": "spender",
          "type": "address"
        }
      ],
      "name": "allowance",
      "outputs": [
        {
          "internalType": "uint256",
          "name": "",
          "type": "uint256"
        }
      ],
      "stateMutability": "view",
      "type": "function"
    },
    {
      "inputs": [
        {
          "internalType": "address",
          "name": "spender",
          "type": "address"
        },
        {
          "internalType": "uint256",
          "name": "value",
          "type": "uint256"
        }
      ],
      "name": "approve",
      "outputs": [
        {
          "internalType": "bool",
          "name": "",
          "type": "bool"
        }
      ],
      "stateMutability": "nonpayable",
      "type": "function"
    },
    {
      "inputs": [
        {
          "internalType": "address",
          "name": "who",
          "type": "address"
        }
      ],
      "name": "balanceOf",
      "outputs": [
        {
          "internalType": "uint256",
          "name": "",
          "type": "uint256"
        }
      ],
      "stateMutability": "view",
      "type": "function"
    },
    {
      "inputs": [],
      "name": "decimals",
      "outputs": [
        {
          "internalType": "uint8",
          "name": "",
          "type": "uint8"
        }
      ],
      "stateMutability": "pure",
      "type": "function"
    },
    {
      "inputs": [
        {
          "internalType": "address",
          "name": "spender",
          "type": "address"
        },
        {
          "internalType": "uint256",
          "name": "subtractedValue",
          "type": "uint256"
        }
      ],
      "name": "decreaseAllowance",
      "outputs": [
        {
          "internalType": "bool",
          "name": "",
          "type": "bool"
        }
      ],
      "stateMutability": "nonpayable",
      "type": "function"
    },
    {
      "inputs": [
        {
          "internalType": "address",
          "name": "spender",
          "type": "address"
        },
        {
          "internalType": "uint256",
          "name": "addedValue",
          "type": "uint256"
        }
      ],
      "name": "increaseAllowance",
      "outputs": [
        {
          "internalType": "bool",
          "name": "",
          "type": "bool"
        }
      ],
      "stateMutability": "nonpayable",
      "type": "function"
    },
    {
      "inputs": [
        {
          "internalType": "address",
          "name": "owner_",
          "type": "address"
        }
      ],
      "name": "initialize",
      "outputs": [],
      "stateMutability": "nonpayable",
      "type": "function"
    },
    {
      "inputs": [],
      "name": "monetaryPolicy",
      "outputs": [
        {
          "internalType": "address",
          "name": "",
          "type": "address"
        }
      ],
      "stateMutability": "view",
      "type": "function"
    },
    {
      "inputs": [],
      "name": "name",
      "outputs": [
        {
          "internalType": "string",
          "name": "",
          "type": "string"
        }
      ],
      "stateMutability": "view",
      "type": "function"
    },
    {
      "inputs": [
        {
          "internalType": "address",
          "name": "who",
          "type": "address"
        }
      ],
      "name": "nonces",
      "outputs": [
        {
          "internalType": "uint256",
          "name": "",
          "type": "uint256"
        }
      ],
      "stateMutability": "view",
      "type": "function"
    },
    {
      "inputs": [],
      "name": "owner",
      "outputs": [
        {
          "internalType": "address",
          "name": "",
          "type": "address"
        }
      ],
      "stateMutability": "view",
      "type": "function"
    },
    {
      "inputs": [
        {
          "internalType": "address",
          "name": "owner",
          "type": "address"
        },
        {
          "internalType": "address",
          "name": "spender",
          "type": "address"
        },
        {
          "internalType": "uint256",
          "name": "value",
          "type": "uint256"
        },
        {
          "internalType": "uint256",
          "name": "deadline",
          "type": "uint256"
        },
        {
          "internalType": "uint8",
          "name": "v",
          "type": "uint8"
        },
        {
          "internalType": "bytes32",
          "name": "r",
          "type": "bytes32"
        },
        {
          "internalType": "bytes32",
          "name": "s",
          "type": "bytes32"
        }
      ],
      "name": "permit",
      "outputs": [],
      "stateMutability": "nonpayable",
      "type": "function"
    },
    {
      "inputs": [
        {
          "internalType": "uint256",
          "name": "epoch",
          "type": "uint256"
        },
        {
          "internalType": "int256",
          "name": "supplyDelta",
          "type": "int256"
        }
      ],
      "name": "rebase",
      "outputs": [
        {
          "internalType": "uint256",
          "name": "",
          "type": "uint256"
        }
      ],
      "stateMutability": "nonpayable",
      "type": "function"
    },
    {
      "inputs": [],
      "name": "renounceOwnership",
      "outputs": [],
      "stateMutability": "nonpayable",
      "type": "function"
    },
    {
      "inputs": [
        {
          "internalType": "address",
          "name": "who",
          "type": "address"
        }
      ],
      "name": "scaledBalanceOf",
      "outputs": [
        {
          "internalType": "uint256",
          "name": "",
          "type": "uint256"
        }
      ],
      "stateMutability": "view",
      "type": "function"
    },
    {
      "inputs": [],
      "name": "scaledTotalSupply",
      "outputs": [
        {
          "internalType": "uint256",
          "name": "",
          "type": "uint256"
        }
      ],
      "stateMutability": "pure",
      "type": "function"
    },
    {
      "inputs": [
        {
          "internalType": "address",
          "name": "monetaryPolicy_",
          "type": "address"
        }
      ],
      "name": "setMonetaryPolicy",
      "outputs": [],
      "stateMutability": "nonpayable",
      "type": "function"
    },
    {
      "inputs": [],
      "name": "symbol",
      "outputs": [
        {
          "internalType": "string",
          "name": "",
          "type": "string"
        }
      ],
      "stateMutability": "view",
      "type": "function"
    },
    {
      "inputs": [],
      "name": "totalSupply",
      "outputs": [
        {
          "internalType": "uint256",
          "name": "",
          "type": "uint256"
        }
      ],
      "stateMutability": "view",
      "type": "function"
    },
    {
      "inputs": [
        {
          "internalType": "address",
          "name": "to",
          "type": "address"
        },
        {
          "internalType": "uint256",
          "name": "value",
          "type": "uint256"
        }
      ],
      "name": "transfer",
      "outputs": [
        {
          "internalType": "bool",
          "name": "",
          "type": "bool"
        }
      ],
      "stateMutability": "nonpayable",
      "type": "function"
    },
    {
      "inputs": [
        {
          "internalType": "address",
          "name": "to",
          "type": "address"
        }
      ],
      "name": "transferAll",
      "outputs": [
        {
          "internalType": "bool",
          "name": "",
          "type": "bool"
        }
      ],
      "stateMutability": "nonpayable",
      "type": "function"
    },
    {
      "inputs": [
        {
          "internalType": "address",
          "name": "from",
          "type": "address"
        },
        {
          "internalType": "address",
          "name": "to",
          "type": "address"
        }
      ],
      "name": "transferAllFrom",
      "outputs": [
        {
          "internalType": "bool",
          "name": "",
          "type": "bool"
        }
      ],
      "stateMutability": "nonpayable",
      "type": "function"
    },
    {
      "inputs": [
        {
          "internalType": "address",
          "name": "from",
          "type": "address"
        },
        {
          "internalType": "address",
          "name": "to",
          "type": "address"
        },
        {
          "internalType": "uint256",
          "name": "value",
          "type": "uint256"
        }
      ],
      "name": "transferFrom",
      "outputs": [
        {
          "internalType": "bool",
          "name": "",
          "type": "bool"
        }
      ],
      "stateMutability": "nonpayable",
      "type": "function"
    },
    {
      "inputs": [
        {
          "internalType": "address",
          "name": "newOwner",
          "type": "address"
        }
      ],
      "name": "transferOwnership",
      "outputs": [],
      "stateMutability": "nonpayable",
      "type": "function"
    }
  ],
  "bytecode": "0x608060405234801561001057600080fd5b50611c1f806100206000396000f3fe608060405234801561001057600080fd5b50600436106101c45760003560e01c806384d4b410116100f9578063a9059cbb11610097578063d505accf11610071578063d505accf1461050b578063dd62ed3e1461055c578063e1b11da41461058a578063f2fde38b14610592576101c4565b8063a9059cbb146104b1578063b1bf962d146104dd578063c4d66de8146104e5576101c4565b80638e27d7d7116100d35780638e27d7d71461044f57806395d89b4114610457578063a3a7e7f31461045f578063a457c2d714610485576101c4565b806384d4b410146103d75780638b5a6a08146104055780638da5cb5b1461042b576101c4565b80633644e51511610166578063715018a611610140578063715018a61461037c57806378160376146103865780637a43e23f1461038e5780637ecebe00146103b1576101c4565b80633644e51514610322578063395093511461032a57806370a0823114610356576101c4565b80631da24f3e116101a25780631da24f3e146102a057806323b872dd146102c657806330adf81f146102fc578063313ce56714610304576101c4565b806306fdde03146101c9578063095ea7b31461024657806318160ddd14610286575b600080fd5b6101d16105b8565b6040805160208082528351818301528351919283929083019185019080838360005b8381101561020b5781810151838201526020016101f3565b50505050905090810190601f1680156102385780820380516001836020036101000a031916815260200191505b509250505060405180910390f35b6102726004803603604081101561025c57600080fd5b506001600160a01b03813516906020013561064e565b604080519115158252519081900360200190f35b61028e6106a3565b60408051918252519081900360200190f35b61028e600480360360208110156102b657600080fd5b50356001600160a01b03166106a9565b610272600480360360608110156102dc57600080fd5b506001600160a01b038135811691602081013590911690604001356106c4565b61028e6107f9565b61030c61081d565b6040805160ff9092168252519081900360200190f35b61028e610822565b6102726004803603604081101561034057600080fd5b506001600160a01b0381351690602001356108d0565b61028e6004803603602081101561036c57600080fd5b50356001600160a01b0316610957565b61038461097f565b005b6101d1610a3d565b61028e600480360360408110156103a457600080fd5b5080359060200135610a5a565b61028e600480360360208110156103c757600080fd5b50356001600160a01b0316610b61565b610272600480360360408110156103ed57600080fd5b506001600160a01b0381358116916020013516610b7c565b6103846004803603602081101561041b57600080fd5b50356001600160a01b0316610c9b565b610433610d63565b604080516001600160a01b039092168252519081900360200190f35b610433610d72565b6101d1610d81565b6102726004803603602081101561047557600080fd5b50356001600160a01b0316610de2565b6102726004803603604081101561049b57600080fd5b506001600160a01b038135169060200135610eac565b610272600480360360408110156104c757600080fd5b506001600160a01b038135169060200135610f41565b61028e61101b565b610384600480360360208110156104fb57600080fd5b50356001600160a01b0316611027565b610384600480360360e081101561052157600080fd5b506001600160a01b03813581169160208101359091169060408101359060608101359060ff6080820135169060a08101359060c001356111b8565b61028e6004803603604081101561057257600080fd5b506001600160a01b038135811691602001351661137f565b61028e6113aa565b610384600480360360208110156105a857600080fd5b50356001600160a01b03166113ce565b60368054604080516020601f60026000196101006001881615020190951694909404938401819004810282018101909252828152606093909290918301828280156106445780601f1061061957610100808354040283529160200191610644565b820191906000526020600020905b81548152906001019060200180831161062757829003601f168201915b5050505050905090565b336000818152609b602090815260408083206001600160a01b03871680855290835281842086905581518681529151939490939092600080516020611bca833981519152928290030190a35060015b92915050565b60985490565b6001600160a01b03166000908152609a602052604090205490565b6000826001600160a01b0381166106da57600080fd5b6001600160a01b0381163014156106f057600080fd5b6001600160a01b0385166000908152609b6020908152604080832033845290915290205461071e90846114e3565b6001600160a01b0386166000908152609b60209081526040808320338452909152812091909155609954610753908590611540565b6001600160a01b0387166000908152609a602052604090205490915061077990826114e3565b6001600160a01b038088166000908152609a602052604080822093909355908716815220546107a890826115a0565b6001600160a01b038087166000818152609a602090815260409182902094909455805188815290519193928a1692600080516020611baa83398151915292918290030190a350600195945050505050565b7f6e71edae12b1b97f4d1f60370fef10105fa2faae0126114a169c64845d6126c981565b600990565b6000467f8b73c3c69bb8fe3d512ecc4cf759cc79239f7b179b0ffacaa9a75d522b39400f61084e6105b8565b805160209182012060408051808201825260018152603160f81b90840152805180840194909452838101919091527fc89efdaa54c0f20c7adf612882df0950f5a951637e0307cdcb4c672f298b8bc6606084015260808301939093523060a0808401919091528351808403909101815260c09092019092528051910120905090565b336000908152609b602090815260408083206001600160a01b0386168452909152812054816108ff82856115a0565b336000818152609b602090815260408083206001600160a01b038b1680855290835292819020859055805185815290519495509193600080516020611bca8339815191529281900390910190a3506001949350505050565b6099546001600160a01b0382166000908152609a6020526040812054909161069d91906115fa565b610987611661565b6001600160a01b0316610998610d63565b6001600160a01b0316146109f3576040805162461bcd60e51b815260206004820181905260248201527f4f776e61626c653a2063616c6c6572206973206e6f7420746865206f776e6572604482015290519081900360640190fd5b6065546040516000916001600160a01b0316907f8be0079c531659141344cd1fd0a4f28419497f9722a3daafe3b4186f6b6457e0908390a3606580546001600160a01b0319169055565b604051806040016040528060018152602001603160f81b81525081565b6097546000906001600160a01b03163314610a7457600080fd5b60985482610ab95760408051828152905185917f72725a3b1e5bd622d6bcd1339bb31279c351abe8f541ac7fd320f24e1b1641f2919081900360200190a2905061069d565b600080841215610add57610ad6610acf85611665565b83906114e3565b9050610aea565b610ae782856115a0565b90505b6001600160801b03811115610b0357506001600160801b035b610b1b81661ff973cafa80006000195b0619906115fa565b609955609881905560408051828152905186917f72725a3b1e5bd622d6bcd1339bb31279c351abe8f541ac7fd320f24e1b1641f2919081900360200190a2949350505050565b6001600160a01b03166000908152609c602052604090205490565b6000816001600160a01b038116610b9257600080fd5b6001600160a01b038116301415610ba857600080fd5b6001600160a01b0384166000908152609a6020526040812054609954909190610bd29083906115fa565b6001600160a01b0387166000908152609b60209081526040808320338452909152902054909150610c0390826114e3565b6001600160a01b038088166000818152609b60209081526040808320338452825280832095909555918152609a90915282812081905590871681522054610c4a90836115a0565b6001600160a01b038087166000818152609a602090815260409182902094909455805185815290519193928a1692600080516020611baa83398151915292918290030190a350600195945050505050565b610ca3611661565b6001600160a01b0316610cb4610d63565b6001600160a01b031614610d0f576040805162461bcd60e51b815260206004820181905260248201527f4f776e61626c653a2063616c6c6572206973206e6f7420746865206f776e6572604482015290519081900360640190fd5b609780546001600160a01b0383166001600160a01b0319909116811790915560408051918252517f0e6961f1a1afb87eaf51fd64f22ddc10062e23aa7838eac5d0bdf140bfd389729181900360200190a150565b6065546001600160a01b031690565b6097546001600160a01b031681565b60378054604080516020601f60026000196101006001881615020190951694909404938401819004810282018101909252828152606093909290918301828280156106445780601f1061061957610100808354040283529160200191610644565b6000816001600160a01b038116610df857600080fd5b6001600160a01b038116301415610e0e57600080fd5b336000908152609a6020526040812054609954909190610e2f9083906115fa565b336000908152609a60205260408082208290556001600160a01b0388168252902054909150610e5e90836115a0565b6001600160a01b0386166000818152609a6020908152604091829020939093558051848152905191923392600080516020611baa8339815191529281900390910190a3506001949350505050565b336000908152609b602090815260408083206001600160a01b038616845290915281205481818410610ee057506000610eea565b6108ff82856114e3565b336000818152609b602090815260408083206001600160a01b038a168085529083529281902085905580518581529051929392600080516020611bca833981519152929181900390910190a3506001949350505050565b6000826001600160a01b038116610f5757600080fd5b6001600160a01b038116301415610f6d57600080fd5b6000610f846099548561154090919063ffffffff16565b336000908152609a6020526040902054909150610fa190826114e3565b336000908152609a6020526040808220929092556001600160a01b03871681522054610fcd90826115a0565b6001600160a01b0386166000818152609a6020908152604091829020939093558051878152905191923392600080516020611baa8339815191529281900390910190a3506001949350505050565b6607222fb4d4ffff1990565b600054610100900460ff1680611040575061104061168d565b8061104e575060005460ff16155b6110895760405162461bcd60e51b815260040180806020018281038252602e815260200180611b5b602e913960400191505060405180910390fd5b600054610100900460ff161580156110b4576000805460ff1961ff0019909116610100171660011790555b6111086040518060400160405280601681526020017522b630b9ba34b1902837b635b0b237ba102a37b5b2b760511b81525060405180604001604052806004815260200163195113d560e21b81525061169e565b6111126009611754565b61111a61176a565b611123826113ce565b6097805461ffff60a01b19169055661ff973cafa800060988181556001600160a01b0384166000908152609a602052604090206607222fb4d4ffff1990555461116e91600019610b13565b60995560985460408051918252516001600160a01b03841691600091600080516020611baa8339815191529181900360200190a380156111b4576000805461ff00191690555b5050565b834211156111c557600080fd5b6001600160a01b038088166000818152609c602090815260408083205481517f6e71edae12b1b97f4d1f60370fef10105fa2faae0126114a169c64845d6126c98185015280830195909552948b166060850152608084018a905260a0840185905260c08085018a90528151808603909101815260e09094019052825192019190912090611250610822565b82604051602001808061190160f01b8152506002018381526020018281526020019250505060405160208183030381529060405280519060200120905060018187878760405160008152602001604052604051808581526020018460ff1681526020018381526020018281526020019450505050506020604051602081039080840390855afa1580156112e7573d6000803e3d6000fd5b505050602060405103516001600160a01b03168a6001600160a01b03161461130e57600080fd5b6113198360016115a0565b6001600160a01b03808c166000818152609c6020908152604080832095909555609b8152848220938e16808352938152908490208c905583518c8152935192939192600080516020611bca8339815191529281900390910190a350505050505050505050565b6001600160a01b039182166000908152609b6020908152604080832093909416825291909152205490565b7f8b73c3c69bb8fe3d512ecc4cf759cc79239f7b179b0ffacaa9a75d522b39400f81565b6113d6611661565b6001600160a01b03166113e7610d63565b6001600160a01b031614611442576040805162461bcd60e51b815260206004820181905260248201527f4f776e61626c653a2063616c6c6572206973206e6f7420746865206f776e6572604482015290519081900360640190fd5b6001600160a01b0381166114875760405162461bcd60e51b8152600401808060200182810382526026815260200180611b356026913960400191505060405180910390fd5b6065546040516001600160a01b038084169216907f8be0079c531659141344cd1fd0a4f28419497f9722a3daafe3b4186f6b6457e090600090a3606580546001600160a01b0319166001600160a01b0392909216919091179055565b60008282111561153a576040805162461bcd60e51b815260206004820152601e60248201527f536166654d6174683a207375627472616374696f6e206f766572666c6f770000604482015290519081900360640190fd5b50900390565b60008261154f5750600061069d565b8282028284828161155c57fe5b04146115995760405162461bcd60e51b8152600401808060200182810382526021815260200180611b896021913960400191505060405180910390fd5b9392505050565b600082820183811015611599576040805162461bcd60e51b815260206004820152601b60248201527f536166654d6174683a206164646974696f6e206f766572666c6f770000000000604482015290519081900360640190fd5b6000808211611650576040805162461bcd60e51b815260206004820152601a60248201527f536166654d6174683a206469766973696f6e206279207a65726f000000000000604482015290519081900360640190fd5b81838161165957fe5b049392505050565b3390565b6000600160ff1b82141561167857600080fd5b60008212611686578161069d565b5060000390565b60006116983061181c565b15905090565b600054610100900460ff16806116b757506116b761168d565b806116c5575060005460ff16155b6117005760405162461bcd60e51b815260040180806020018281038252602e815260200180611b5b602e913960400191505060405180910390fd5b600054610100900460ff1615801561172b576000805460ff1961ff0019909116610100171660011790555b611733611822565b61173d83836118c2565b801561174f576000805461ff00191690555b505050565b6038805460ff191660ff92909216919091179055565b600054610100900460ff1680611783575061178361168d565b80611791575060005460ff16155b6117cc5760405162461bcd60e51b815260040180806020018281038252602e815260200180611b5b602e913960400191505060405180910390fd5b600054610100900460ff161580156117f7576000805460ff1961ff0019909116610100171660011790555b6117ff611822565b61180761199a565b8015611819576000805461ff00191690555b50565b3b151590565b600054610100900460ff168061183b575061183b61168d565b80611849575060005460ff16155b6118845760405162461bcd60e51b815260040180806020018281038252602e815260200180611b5b602e913960400191505060405180910390fd5b600054610100900460ff16158015611807576000805460ff1961ff0019909116610100171660011790558015611819576000805461ff001916905550565b600054610100900460ff16806118db57506118db61168d565b806118e9575060005460ff16155b6119245760405162461bcd60e51b815260040180806020018281038252602e815260200180611b5b602e913960400191505060405180910390fd5b600054610100900460ff1615801561194f576000805460ff1961ff0019909116610100171660011790555b8251611962906036906020860190611a93565b508151611976906037906020850190611a93565b506038805460ff19166012179055801561174f576000805461ff0019169055505050565b600054610100900460ff16806119b357506119b361168d565b806119c1575060005460ff16155b6119fc5760405162461bcd60e51b815260040180806020018281038252602e815260200180611b5b602e913960400191505060405180910390fd5b600054610100900460ff16158015611a27576000805460ff1961ff0019909116610100171660011790555b6000611a31611661565b606580546001600160a01b0319166001600160a01b038316908117909155604051919250906000907f8be0079c531659141344cd1fd0a4f28419497f9722a3daafe3b4186f6b6457e0908290a3508015611819576000805461ff001916905550565b828054600181600116156101000203166002900490600052602060002090601f016020900481019282611ac95760008555611b0f565b82601f10611ae257805160ff1916838001178555611b0f565b82800160010185558215611b0f579182015b82811115611b0f578251825591602001919060010190611af4565b50611b1b929150611b1f565b5090565b5b80821115611b1b5760008155600101611b2056fe4f776e61626c653a206e6577206f776e657220697320746865207a65726f2061646472657373496e697469616c697a61626c653a20636f6e747261637420697320616c726561647920696e697469616c697a6564536166654d6174683a206d756c7469706c69636174696f6e206f766572666c6f77ddf252ad1be2c89b69c2b068fc378daa952ba7f163c4a11628f55a4df523b3ef8c5be1e5ebec7d5bd14f71427d1e84f3dd0314c0f7b2291e5b200ac8c7c3b925a2646970667358221220d7337b2701b646e7886a61923b11712d0202b743ba05d7fb276fc5f4aa8e86f164736f6c63430007060033",
  "linkReferences": {},
  "deployedLinkReferences": {}
}